:020000040800F2
:10000000384E0020450100087D260008251B000809
:1000100079260008510C0008453300080000000054
:100020000000000000000000000000008D2B000810
:10003000690E00080000000005270008792C000860
:100040005F0100085F0100085F0100085F01000810
:100050005F0100085F0100085F0100085F01000800
:100060005F0100085F0100085F0100085F010008F0
:100070005F0100085F0100085F0100085F010008E0
:100080005F0100085F0100085F0100085F010008D0
:100090005F0100085F0100085F0100085F010008C0
:1000A0005F0100085F0100085F0100085F010008B0
:1000B0005F0100085F0100085F0100085F010008A0
:1000C0005F0100085F0100085F0100085F01000890
:1000D0005F0100085F0100085F010008B92F0008F8
:1000E0005F0100085F0100085F0100085F01000870
:1000F0005F0100085F0100085F0100085F01000860
:100100005F0100085F0100086D2D00085F01000815
:100110005F0100085F0100085F0100085F0100083F
:100120005F0100085F0100085F0100085F0100082F
:10013000DFF80CD000F0D8FB00480047D53C0008A1
:10014000384E00200648804706480047FEE7FEE795
:10015000FEE7FEE7FEE7FEE7FEE7FEE7FEE7FEE777
:100160000D2D000831010008D2B201E000F8012B8A
:10017000491EFBD270470022F6E710B513460A4627
:1001800004461946FFF7F0FF204610BD30B505467E
:100190002A460B4612F8010B13F8014B08B1A04296
:1001A000F8D01CB1002802D06D1CF1E7284630BD04
:1001B00010B5044604E00B7800F8013B03B1491C7C
:1001C000521EF8D2204610BD421C10F8011B002917
:1001D000FBD1801A704730B480EA010202F000457A
:1001E00030F0004221F0004013D090B1C30DD40D87
:1001F000C2F31601C0F31600E41A41F4000140F402
:1002000000027D34914201D3641C00E04900002CBF
:1002100002DA30BC002070474FF400000023914206
:1002200001D3891A034340084FEA4101F7D151B184
:10023000914202D14FF0004105E002D24FF001019E
:1002400001E06FF0010103EBC450284430BC00F022
:100250009FBA2DE9FE4F804681EA0300C00F0C468D
:10026000009021F0004123F00045B8EB0200A941C5
:1002700005D24046214690461C460B46024623F0D6
:100280000040104347D0270DC7F30A00C3F30A51BB
:100290000290401A019040286BDAC3F3130040F437
:1002A000801B0098924620B10023D2EB030A63EB37
:1002B0000B0B01985946C0F14002504600F037FA46
:1002C00006460D4650465946019A00F04FFA10EB8B
:1002D00008006141002487EA115284EAE7731A4357
:1002E00040D0009A62B3019A012A4FEA075215DC06
:1002F000001B61EB02014FF0004202EA0752CDE918
:100300000042001C41F5801132462B4600F086FA6F
:1003100003B0BDE8F08F40462146F9E7001B61EBD2
:100320000201001C41F5801300185B412018A2F562
:10033000001747EB030140EAD570B6196D4111E093
:100340006D084FEA360645EAC0754FEA0752001BB2
:1003500061EB0201001C41F5801149084FEA3000B1
:100360000019514132462B4603B0BDE8F04F00F072
:1003700046BA0098012240000023D0EB020263EB52
:10038000E073009821464FEAE074B8EB000061EB9F
:100390000401E9E783F000435BE781F0004158E79F
:1003A0002DE9FE4F81EA030404F0004421F00041EE
:1003B00000944FF0000B23F0004350EA01045ED09C
:1003C00052EA03045BD0C3F30A54C1F30A552C4428
:1003D000A4F2F3340194A0FB0254C1F3130141F4DD
:1003E0008011C3F3130343F4801301FB024400FBA9
:1003F000034E840A970A44EA815447EA8357A4FBD0
:10040000076802958D0A05FB07854FEA932C04FBCC
:100410000C542705029D4FEA065847EA1637B5EBFC
:1004200008056EEB070C870E920E47EA811742EA29
:100430008312A7FB0201B6EB0B0164EB00042B0D4A
:1004400043EA0C335E1844EB1C50DA465146E7FB96
:100450000201C5F313044FEA0B3343EA14534FEA86
:100460000432019C43EA0603A4F10C040294009CAC
:10047000CDE900B400F0D2F903B0BDE8F08F002060
:100480000146F9E72DE9F04D81EA030404F0004B41
:1004900021F0004514464FF0000A23F0004150EAD5
:1004A000050220D054EA01021DD0C5F30A570246C6
:1004B000C5F31303C1F31300C1F30A5640F48015CA
:1004C00043F48013A7EB0608101BD64608F2FD384C
:1004D00073EB050002D308F1010801E092185B41BB
:1004E000B8F1000F03DA00200146BDE8F08D0020CE
:1004F0004FF48011064684460EE0171B73EB050788
:1005000005D3121B63EB050306434CEA010C4908B3
:100510004FEA300092185B4150EA0107EDD152EAF0
:10052000030012D082EA040083EA0501084305D0E3
:10053000101BAB4106D20122002306E000224FF03F
:10054000004302E06FF0010253101AEB06004CEB7F
:10055000085110EB0A0041EB0B01BDE8F04D00F033
:100560004EB996230022114600F01BB90EB540F299
:10057000334102910021CDE900110A460B4600F0FB
:100580004DF903B000BD00F0004220F00040C10D65
:10059000C0F3160040F400007F2901DA0020704704
:1005A000962903DCC1F19601C84001E096398840E4
:1005B000002AF4D04042704720F00040C10DC0F343
:1005C000160040F400007F2901DA002070479629C8
:1005D00003DCC1F19601C8407047963988407047E6
:1005E00000F0004230F000400AD0C10D01F560710A
:1005F000C0F3160042EA0151C20840071143704798
:10060000002001467047000030B5041E71F100045F
:1006100004DB4FF00044404264EB0101141E73F10F
:10062000000405DB1C464FF00043524263EB040319
:100630008B4208BF824230BD30B5041E71F1000408
:1006400004DB4FF00044404264EB0101141E73F1DF
:10065000000405DB1C464FF00043524263EB0403E9
:10066000994208BF904230BD01F0004330B421F000
:10067000004150EA010206D00A0DA2F56072C1F3F2
:100680001301002A02DC30BC00207047440F44EA0A
:10069000C104C100E01830BC00EBC25000F078B8D3
:1006A00030B50B46014600202022012409E021FA42
:1006B00002F59D4205D303FA02F5491B04FA02F53F
:1006C0002844151EA2F10102F1DC30BD2DE9F05FD6
:1006D0000546002092469B468846064681464024B1
:1006E0001BE0284641464746224600F02FF8534675
:1006F0005A46C01A914110D311461846224600F0BE
:1007000016F82D1A67EB01084F46224601200021FA
:1007100000F00DF817EB00094E41201EA4F1010472
:10072000DFDC484631462A464346BDE8F09F202A92
:1007300004DB203A00FA02F1002070479140C2F138
:10074000200320FA03F3194390407047202A04DB6A
:10075000203A21FA02F00021704721FA02F3D0403A
:10076000C2F120029140084319467047202A06DB57
:10077000CB17203A41FA02F043EAE07306E041FA6F
:1007800002F3D040C2F1200291400843194670475D
:100790000029A8BF7047401C490008BF20F0010095
:1007A000704710B4B0FA80FC00FA0CF050EA010473
:1007B00004BF10BC704749B1CCF1200421FA04F405
:1007C00011FA0CF118BF012121430843A3EB0C01DE
:1007D000CB1D4FEA00614FEA102042BF002010BC41
:1007E000704700EBC35010440029A4BF10BC7047F1
:1007F000401C490008BF20F0010010BC704710B534
:10080000141E73F1000408DA401C41F10001921833
:100810005B411A4301D120F0010010BD2DE9F04DDC
:1008200092469B4611B1B1FA81F202E0B0FA80F231
:1008300020329046FFF77BFF04460F4640EA0A004D
:1008400041EA0B0153465A46084313D0114653EA76
:10085000010019D0C8F140025046FFF777FF054666
:100860000E46504659464246FFF761FF084305D001
:10087000012004E020463946BDE8F08D0020054304
:1008800046EAE0762C4337430A986305E40AA0EB76
:1008900008000022FD0A44EA47540A3002D500202D
:1008A0000146E9E7010510196941DDE9084500192C
:1008B0006941BDE8F04DA2E7C1F30A52C1F313014B
:1008C00040F2FF3341F480119A4202DA00200146DF
:1008D000704740F233439A42A2F2334202DC524262
:1008E000FFF734BFFFF723BF064C074D06E0E06873
:1008F00040F0010394E8070098471034AC42F6D367
:10090000FFF71AFC688400088884000821B1826817
:1009100042F00102826003E0826822F001028260FC
:10092000704721B1826842F48072826003E082687D
:1009300022F4807282607047014600208A6802F0CB
:1009400004020AB1012000E00020704701460020A7
:100950008A6802F008020AB1012000E00020704716
:1009600030B502460020002350680F4C20400D791E
:100970000C6844EA05242043506090680B4C2040EA
:10098000D1E902542C434D7944EA45042043906058
:10099000D06A20F470000C7C641EE4B2234340EA69
:1009A0000350D06230BD0000FFFEF0FFFDF7F1FF05
:1009B000F0B504460D4600200021092D11DDE06848
:1009C000A5F10A0606EB4607072606FA07F1884353
:1009D000A5F10A0606EB460603FA06F10843E060B5
:1009E0000CE0206905EB4507072606FA07F1884366
:1009F00005EB450603FA06F108432061072A0FDAE2
:100A0000606B561E06EB86071F2606FA07F1884321
:100A1000561E06EB860605FA06F10843606322E0DF
:100A20000D2A0FDA206BD61F06EB86071F2606FA63
:100A300007F18843D61F06EB860605FA06F1084340
:100A4000206310E0E06AA2F10D0606EB86071F2680
:100A500006FA07F18843A2F10D0606EB860605FAB1
:100A600006F10843E062F0BD816841F00801816051
:100A7000704721B1826842F4A002826003E082687C
:100A800022F4A00282607047816841F00401816015
:100A90007047000008B50121142001F061FE10200C
:100AA000ADF8000000208DF803006946124800F000
:100AB00014FF0420ADF8000000208DF80300694603
:100AC0000E4800F00AFF1020ADF8000000208DF85D
:100AD00003006946094800F000FF4020ADF800001F
:100AE00010208DF8030003208DF8020069460348AA
:100AF00000F0F3FE08BD00000008014000100140B6
:100B000010B5FFF7C7FF00F001F810BD00B591B0B8
:100B10000121084601F004FE0121480201F020FEF7
:100B20003A4800F0DDF83A4806903A48079000202D
:100B300008900320099000200A9080200B9040002C
:100B40000C9080000D9020200E9000020F9000204D
:100B5000109006A92D4800F069F901212B4800F0FA
:100B6000B3F80020019001208DF808008DF80900ED
:100B70004FF4602003900020049003208DF81400AF
:100B800001A923484C38FFF7EBFE4FF4404001F039
:100B9000BBFD052301220C211D484C38FFF708FF3F
:100BA0000523022204211A484C38FFF701FF0523D0
:100BB00003220E2116484C38FFF7FAFE0121144893
:100BC0004C38FFF7AEFE012111484C38FFF79EFE6E
:100BD0000F484C38FFF748FF00BF0D484C38FFF76F
:100BE000B5FE0028F9D10A484C38FFF74DFF00BF89
:100BF00007484C38FFF7A0FE0028F9D1012104482E
:100C00004C38FFF736FF11B000BD0000080002406D
:100C10004C2401405400002008B50121042001F0BB
:100C20009FFD4FF48070ADF8000010208DF8030098
:100C300003208DF802006946044800F04EFE4FF490
:100C40008071024800F0DDFE08BD00000008014090
:100C500000BFFEE708B50121102001F081FD8020D2
:100C6000ADF8000010208DF8030003208DF802007D
:100C70006946044800F031FE8021024800F0C3FEBE
:100C800008BD00000010014008B58020ADF800004C
:100C900048208DF803006946014800F01EFE08BD9B
:100CA0000010014008B58020ADF8000010208DF83C
:100CB000030003208DF802006946024800F00DFE93
:100CC00008BD00000010014021B1026842F001029D
:100CD000026004E002684FF6FE731A40026070473B
:100CE00001684FF6FE721140016000210160416011
:100CF0008160C1604B49884208D14A490839496836
:100D000041F00F01474A083A51608AE045491431E1
:100D1000884208D143490839496841F0F001414A05
:100D2000083A51607DE03F492831884208D13D4969
:100D30000839496841F470613A4A083A516070E0F4
:100D400038493C31884208D136490839496841F46C
:100D50007041344A083A516063E032495031884268
:100D600008D130490839496841F470212D4A083AC0
:100D7000516056E02B496431884208D1294908392D
:100D8000496841F47001274A083A516049E0254911
:100D90007831884208D123490839496841F07061A7
:100DA000204A083A51603CE01F49884206D1011FA1
:100DB000096841F00F01021F116032E01A49143135
:100DC000884208D11849091F096841F0F001164A04
:100DD000121F116025E014492831884208D11249B8
:100DE000091F096841F470610F4A121F116018E071
:100DF0000D493C31884208D10B49091F096841F46B
:100E00007041094A121F11600BE0074950318842B6
:100E100007D10549091F096841F47021024A121FD0
:100E200011607047080002400804024010B500221B
:100E3000026847F6F0739A430C6A8B6823430C6987
:100E400023434C6923438C692343CC6923434C6A75
:100E500023438C6A23431A430260CB6843600B68C8
:100E600083604B68C36010BD7047000001B508493E
:100E7000009808604FF0E020006940F001004FF05A
:100E8000E021086100BF024800680028FBD108BDCE
:100E90002000002010B500244FF400710B4800F032
:100EA000B2FD0B48FFF7E2FF0CE04FF4FA730022AB
:100EB00008A109A000F012F800B110BD00F0DEFAA0
:100EC000601CC4B20A2CF0DB00BFF6E7000C014046
:100ED00040420F004F4B0000415400002DE9F0410B
:100EE00006460C4615461F462748B0F800046FF327
:100EF0000E002549A1F80004324624A1254802F03D
:100F00009EF91CB915B90120BDE8F0814FF47A7142
:100F100007FB01F0FFF7AAFF00201B49B1F80014FE
:100F2000C1F30E01184A505411461BA002F00CFAEE
:100F3000B4B1ADB121461448FFF728F908B101203A
:100F400000E0002040B929460F48FFF71FF908B11B
:100F5000012000E0002008B10120D5E70020D3E700
:100F600044B121460848FFF711F908B10120CBE749
:100F70000020C9E729460448FFF708F908B1012015
:100F8000C2E70020C0E700003046002025730D0AAC
:100F900000000000004800402573000010B514A0B8
:100FA00002F0D2F94FF48071184800F02CFDFFF7E1
:100FB00071FF002000F076F900BF15A118A000F025
:100FC000F1F80028F9D0002000F046F800BF052312
:100FD00015A217A1002000F005F90028F7D000BFE6
:100FE00000F012FB0028FBD015A002F0ADF910BDF7
:100FF0000D0AD5FDD4DAC5E4D6C3204553503832A6
:101000003636202E2E2E2E2E2E0D0A00000C0140DC
:1010100077753438363537393132332E00000000D9
:10102000313030303030340038303830000000009B
:101030003139322E3136382E312E31303100000028
:101040000D0AC5E4D6C3204553503832363620CD7C
:10105000EAB1CF0D0A00000010B586B004460CB10D
:10106000012000E00020024606A101A802F07CF960
:101070004FF4FA73002207A101A8FFF72FFF06B073
:1010800010BD000041542B4349504D55583D256437
:10109000000000004F4B000010B50548FFF7E6FECA
:1010A00004A1054802F0CBF80448FFF7DFFE10BDAD
:1010B00040420F002B2B2B000048004020A10700CE
:1010C00008B50121082001F04BFB4FF48070ADF80A
:1010D000000010208DF8030003208DF802006946FF
:1010E000074800F0FAFB0121082001F039FB4FF41A
:1010F0000070ADF800006946014800F0EEFB08BD45
:10110000000C014010B54FF4FA7300220DA10EA09F
:10111000FFF7E4FEA0B110A11248FFF737F808B1BD
:10112000022010BD10A10F48FFF730F808B10320CE
:10113000F7E710A10B48FFF729F808B10420F0E702
:101140000020EEE74F4B000041542B4349505354CD
:1011500041545553000000005354415455533A3202
:101160000D0A0000304600205354415455533A3381
:101170000D0A00005354415455533A340D0A0000EF
:1011800010B5FFF79DFF00F0DDF94FF40071044842
:1011900000F039FC4FF48071014800F032FC10BDC2
:1011A000000C014030B59FB004460D462B46224648
:1011B00006A101A802F0D8F841F28833002208A164
:1011C00001A8FFF78BFE1FB030BD000041542B4338
:1011D000574A41503D222573222C222573220000BC
:1011E0004F4B0000F0B5B9B006460F4614461D46F9
:1011F000642120A8FEF7BFFF16B1012E10D107E031
:101200003B4614A214A120A8009402F0ADF808E017
:101210003B4615A210A120A8009402F0A5F800E01A
:1012200000BF00BF052D06DA20AB2A460FA102A899
:1012300002F09AF804E020AA11A102A802F094F8A2
:101240004FF47A6312A216A102A8FFF747FE39B045
:10125000F0BD000054435000222573222C22257338
:10126000222C2573000000005544500041542B43AC
:10127000495053544152543D25642C2573000000BD
:1012800041542B43495053544152543D257300005F
:10129000414C5245415920434F4E4E454354000066
:1012A0004F4B000010B5044624B1012C0AD0022C8B
:1012B00018D10FE040F6C4130BA20EA10EA0FFF749
:1012C0000DFE10BD40F6C41307A20AA10DA0FFF742
:1012D00005FEF6E740F6C41303A206A10CA0FFF733
:1012E000FDFDEEE70020ECE76E6F206368616E673E
:1012F000650000004F4B000041542B43574D4F44B5
:10130000453D310041542B43574D4F44453D32003C
:1013100041542B43574D4F44453D330070B504466F
:10132000052300222146012000F0BCF84CF2503089
:10133000FFF79CFD012000F06FF805464CF250309D
:10134000FFF794FD17480078002829D0FFF7A4FE86
:1013500000BFFFF7D7FE1449087008460078002840
:10136000F7D008460078042815D110A001F0ECFF52
:1013700000BF16A119A0FFF715FF0028F9D000BF84
:10138000052318A219A10020FFF72CFF0028F7D091
:101390001AA001F0D9FF00BF00F036F90028FBD0F9
:1013A000284670BD5A0000205B0000200D0AD5FDC4
:1013B000D4DAD6D8C1ACC8C8B5E3BACDB7FECEF141
:1013C000C6F7202E2E2E2E2E2E0D0A0077753438BD
:1013D000363537393132332E0000000031303030AD
:1013E0003030340038303830000000003139322ECF
:1013F0003136382E312E3130310000000D0AD6D86A
:10140000C1ACC8C8B5E3BACDB7FECEF1C6F7B3C913
:10141000B9A60D0A0000000070B504460025144866
:10142000B0F800046FF30E001149A1F8000408465B
:10143000B0F8000420F40040A1F8000400BF0C48FC
:10144000B0F80004C00B0028F9D000200849B1F81A
:101450000014C1F30E01064A50540CB1154605E0C4
:1014600004A10348FEF792FE00B1014D284670BD6D
:10147000304600202B4950440000000010B54FF4C6
:101480000071064800F0BDFA0548FFF7EFFC4FF485
:101490000071024800F0B7FA10BD0000000C0140D6
:1014A00020A107002DE9F04186B007460C461546FD
:1014B0001E464FF000083FB1224614A1144801F027
:1014C000BEFE4FF001081CE0052E06DAAB1C3246CA
:1014D00010A101A801F048FF04E0AA1C12A101A874
:1014E00001F042FF4FF47A73002213A101A8FFF725
:1014F000F5FC4FF47A73002210A12046FFF7EEFCB2
:101500008046404606B0BDE8F0810000257300002B
:101510000048004041542B43495053454E443D251B
:10152000642C25640000000041542B43495053456E
:101530004E443D25640000003E20000053454E44CB
:10154000204F4B0000B585B00121880401F0F8F868
:101550000121082001F004F94FF48060ADF810007B
:1015600018208DF8130003208DF8120004A91A48E2
:1015700000F0B3F94FF40060ADF8100004208DF8CE
:10158000130004A9144800F0A8F94FF4E1300090CA
:101590000020ADF80400ADF80600ADF80800ADF885
:1015A0000C000C20ADF80A0069460C4801F0D2FD91
:1015B000012240F22551094801F0A6FD012240F226
:1015C0002441064801F0A0FD00F00AF8012103487B
:1015D00001F057FD05B000BD000C0140004800407F
:1015E00008B54FF4A06001F083F827208DF80000C3
:1015F00000208DF801008DF8020001208DF8030015
:10160000684601F03DF808BD10B54FF4FA730022AA
:1016100007A108A0FFF762FC08B9002010BD4FF435
:10162000FA7308A202A108A0FFF758FCF6E7000031
:101630004F4B000041542B4349504D4F44453D31E1
:10164000000000003E00000041542B434950534528
:101650004E44000008B50121142001F081F8082053
:10166000ADF8000018208DF8030003208DF802006B
:101670006946134800F031F90820ADF80000102049
:101680008DF8030003208DF8020069460D4800F034
:1016900024F92020ADF8000010208DF8030003206D
:1016A0008DF802006946074800F017F9082105483F
:1016B00000F0A7F92021034800F0A5F908BD0000BB
:1016C000000801400010014010B5FFF7C3FF00F013
:1016D00001F810BD00B587B00121084601F030F8CF
:1016E00040F2E730ADF814000020ADF81000ADF87E
:1016F0001600ADF812008DF8180004A94FF08040D4
:1017000001F0C2FB6020ADF800000120ADF802003E
:101710000020ADF80800ADF8060069464FF08040A3
:1017200001F064FB0821C80601F09EFB0121880737
:1017300001F036FB07B000BD51B18200A2F1C042FA
:10174000126842F001038200A2F1C042136009E076
:101750008200A2F1C0421268034B1A408300A3F139
:10176000C0431A6070470000FEFF0F00D0E901126D
:101770001143C268114302691143426911438269EE
:101780001143C2691143026A1143426A1143826ADA
:101790001143C26A1143026B114302689200A2F125
:1017A000C0421160816808290BD101688900A1F14C
:1017B000C041096841F0400201688900A1F1C041BF
:1017C0000A60416B0968426B526841EA0211426B40
:1017D000926841EA0221426B928941EA0241426BDE
:1017E000128A41EA0251426B127D41EA0261426B68
:1017F000926911430268521C9200A2F1C04211602A
:10180000C16AB1F5804F1BD1816B0968826B526848
:1018100041EA0211826B926841EA0221826B128ACC
:1018200041EA0251826B127D41EA0261826B926948
:10183000114302689200A2F1C042C2F8041107E00D
:101840006FF0704201688900A1F1C041C1F8042124
:10185000704710B500F02CF800F002F810BD000041
:101860000EB50121082000F06BFF40F2E730ADF823
:1018700004004720ADF800000020ADF80600ADF8E8
:1018800002008DF808006946084801F0FDFA0121C0
:10189000064801F07FFA01221146044801F09DFA42
:1018A0000121024801F07CFA0EBD0000000C00404E
:1018B00008B54FF4E06000F01BFF32208DF8000007
:1018C00000208DF8010003208DF8020001208DF822
:1018D0000300684600F0D4FE08BD2DE9F041024641
:1018E00000250026002000230024002791F803C0D3
:1018F0000CF00F0591F803C00CF0100CBCF1000FB8
:1019000003D091F802C04CEA050591F800C0BCF183
:10191000000F31D0146800202BE04FF0010C0CFABE
:1019200000F3B1F800C00CEA03069E4220D1830008
:101930004FF00F0C0CFA03F7BC4305FA03FC4CEA1A
:10194000040491F803C0BCF1280F06D14FF0010C3C
:101950000CFA00FCC2F814C00AE091F803C0BCF114
:10196000480F05D14FF0010C0CFA00FCC2F810C072
:10197000401C0828D1D31460B1F800C0BCF1FF0F9F
:1019800034DD546800202EE000F1080C4FF001080F
:1019900008FA0CF3B1F800C00CEA03069E4221D10C
:1019A00083004FF00F0C0CFA03F7BC4305FA03FC5D
:1019B0004CEA040491F803C0BCF1280F05D100F1F2
:1019C000080C08FA0CF8C2F8148091F803C0BCF1B6
:1019D000480F07D100F1080C4FF0010808FA0CF885
:1019E000C2F81080401C0828CED35460BDE8F081B6
:1019F0000246002093680B400BB1012000E000205C
:101A00007047416170470161704700002DE9F04166
:101A100080460C461048007820B900F0CFFF012026
:101A20000D4908702512E6B2A5F1A101C1EB011222
:101A300002EB411106EB4101A1390802C11700EB8D
:101A40005171CF10054839182022404600F08EFF12
:101A50000020BDE8F08100003C00002000301800AC
:101A600010B540210D48FFF7CCFF4FF48C70FFF705
:101A7000FDF90B498888FEF774FD04462820FFF71E
:101A8000F5F940210548FFF7BEFF42F2D050FFF7BD
:101A9000EDF92046FEF790FD80B210BD0010014028
:101AA0005400002070B504460025002608E0FFF72A
:101AB000D7FF054441F28830FFF7D8F9701CC6B251
:101AC000A642F4DBB5FBF4F080B270BD70B50446FD
:101AD0000025002608E007480088054441F28830C8
:101AE000FFF7C4F9701CC6B2A642F4DBB5FBF4F0F4
:101AF00080B270BD5400002070B504460025002659
:101B000008E007484088054441F28830FFF7AEF905
:101B1000701CC6B2A642F4DBB5FBF4F080B270BD17
:101B20005400002000BFFEE710B504462CB14FF46E
:101B300080510548FFF765FF04E04FF480510248EB
:101B4000FFF761FF10BD0000001401402DE9F041D6
:101B500006460F4614461D462B4622463946304659
:101B600000F046FA04FB05F00249098800F0F3F89A
:101B7000BDE8F0814E00002001B502E00098401E53
:101B8000009000980028F9D108BD00002DE9F04F21
:101B90008FB00646884614469946DDE9185B27460D
:101BA00069E03046384437490988884204DD002618
:101BB00008EB09001FFA80F840464844324909887A
:101BC000884201DD0026B0462878802825DD27469A
:101BD000B5F800A04FEA0A2000EB2A201FFA80FA8D
:101BE000514605A8FFF712FF012105AA0E984B46A2
:101BF000CDE9002002913A461021084600F05EFB34
:101C000022484B463A464146CDE9000B304600F0AB
:101C100041F8F01986B2AD1C2DE0204604EBD071DE
:101C2000C1F34F0728782038C0B20D900023184820
:101C3000C288DDE90D015043154A92885043C2170E
:101C4000049000EB5270124A126802EBE0008DE83B
:101C50000B004B463A461821102000F02FFB0B4892
:101C60004B463A464146CDE9000B304600F012F8AB
:101C7000F01986B26D1C2878002892D10FB0BDE80B
:101C8000F08F0000400000204200002030020020C1
:101C90002C0000202DE9F05F81468A4614461D463F
:101CA000DDE90A6B0027B8462B46224651464846D6
:101CB00000F09EF92C2000F0F7FA00BF14E04FF07E
:101CC00000080EE016F8011B594504D108480088A9
:101CD00000F0EEFA03E00748008800F0E9FA08F1A6
:101CE0000108A045EED37F1CAF42E8D3BDE8F09FCA
:101CF0004E0000204C00002000B597B001210802E2
:101D000000F00EFD01200190042003908006079052
:101D100000200290049005900690089009900820F9
:101D20000A9010200B9000200C900E900F901090B5
:101D30004FF480501190002012901390149001A83D
:101D40001590169008A8FFF711FD01210020FFF75C
:101D5000F3FC17B000BD70B504460D4600262C20DC
:101D600000F0A2FA00BF03E0284600F0A1FA761CBA
:101D7000A642F9D370BD000008B50121602000F033
:101D8000EFFC03208DF8020018208DF803004FF4BB
:101D90008040ADF8000069465B48FFF79EFD4FF4B8
:101DA0000040ADF8000069465748FFF796FD012056
:101DB000ADF8000069465448FFF78FFD0220ADF8EA
:101DC000000069465048FFF788FD8020ADF800000C
:101DD00069464E48FFF781FD4FF48070ADF8000072
:101DE00069464A48FFF779FD4FF40070ADF80000EE
:101DF00069464648FFF771FD4FF48060ADF800007A
:101E000069464248FFF769FD4FF40060ADF80000F5
:101E100069463E48FFF761FD4FF48050ADF8000081
:101E200069463A48FFF759FD4FF40050ADF80000FD
:101E300069463648FFF751FD4FF48040ADF8000089
:101E400069463248FFF749FD4FF40040ADF8000005
:101E500069462E48FFF741FD4FF48070ADF8000051
:101E600069462948FFF739FD4FF40070ADF80000CE
:101E700069462548FFF731FD4FF48060ADF800005A
:101E800069462148FFF729FD03208DF8020018203C
:101E90008DF803001020ADF8000069461A48FFF7DE
:101EA0001CFD2020ADF8000069461748FFF715FD1E
:101EB0008020ADF8000069461348FFF70EFD4FF48F
:101EC0000060ADF8000069460F48FFF706FD1020DE
:101ED0008DF8030003208DF802000220ADF8000009
:101EE00069460A48FFF7F9FC10208DF8030003202B
:101EF0008DF802004FF48050ADF8000069460248AA
:101F0000FFF7EBFC08BD0000001401400018014081
:101F100010B50446072C00DD10BD2848047020468B
:101F200004EBD0714910A4EB410139B9F0202449E8
:101F300008804FF4A0702349088006E04FF4A07099
:101F40001F490880F0201F490880362000F0ACF9B6
:101F5000082141EA441000F0ABF92A2000F0A4F96E
:101F6000002000F0A5F9002000F0A2F9144909882A
:101F7000491EC1F3072000F09BF911490978491E59
:101F8000C8B200F095F92B2000F08EF9002000F087
:101F90008FF9002000F08CF90A490988491EC1F325
:101FA000072000F085F907490978491EC8B200F0FA
:101FB0007FF92C2000F078F900BFADE74400002045
:101FC000400000204200002010B5FFF7D5FEFFF7CB
:101FD00093FE0120FFF7A8FD00F052F900F038F859
:101FE00002480078FFF794FF10BD00004400002075
:101FF0002DE9F04104460D4616461F462A2000F002
:1020000053F9201200F054F9E0B200F051F9A1198F
:10201000491EC1F30F2000F04BF9A119491EC8B2A7
:1020200000F046F92B2000F03FF9281200F040F9AB
:10203000E8B200F03DF9E919491EC1F30F2000F0A4
:1020400037F9E919491EC8B200F032F9BDE8F0814C
:1020500010B5CF2000F028F9002000F029F98120E8
:1020600000F026F9302000F023F9ED2000F01CF9F3
:10207000642000F01DF9032000F01AF9122000F08E
:1020800017F9812000F014F9E82000F00DF98520FF
:1020900000F00EF9102000F00BF9782000F008F99C
:1020A000CB2000F001F9392000F002F92C2000F0DB
:1020B000FFF8002000F0FCF8342000F0F9F80220CE
:1020C00000F0F6F8F72000F0EFF8202000F0F0F82C
:1020D000EA2000F0E9F8002000F0EAF8002000F023
:1020E000E7F8B12000F0E0F8002000F0E1F81B2054
:1020F00000F0DEF8B62000F0D7F80A2000F0D8F89B
:10210000A22000F0D5F8C02000F0CEF8352000F075
:10211000CFF8C12000F0C8F8112000F0C9F8C520A0
:1021200000F0C2F8452000F0C3F8452000F0C0F8E8
:10213000C72000F0B9F8A22000F0BAF8F22000F0B1
:10214000B3F8002000F0B4F8262000F0ADF801202C
:1021500000F0AEF8E02000F0A7F80F2000F0A8F89B
:10216000262000F0A5F8242000F0A2F80B2000F0B3
:102170009FF80E2000F09CF8092000F099F85420F8
:1021800000F096F8A82000F093F8462000F090F8B0
:102190000C2000F08DF8172000F08AF8092000F0DC
:1021A00087F80F2000F084F8072000F081F8002065
:1021B00000F07EF8E12000F077F8002000F078F8D9
:1021C000192000F075F81B2000F072F8042000F0D0
:1021D0006FF8102000F06CF8072000F069F82A2052
:1021E00000F066F8472000F063F8392000F060F84E
:1021F000032000F05DF8062000F05AF8062000F0F9
:1022000057F8302000F054F8382000F051F80F2033
:1022100000F04EF8362000F047F8C82000F048F8EB
:102220002A2000F041F8002000F042F8002000F0E1
:102230003FF8002000F03CF8EF2000F039F82B20A8
:1022400000F032F8002000F033F8002000F030F801
:10225000012000F02DF83F2000F02AF83A2000F08D
:1022600023F8552000F024F8112000F01DF8034851
:10227000FFF782FC292000F017F810BDFCBF020018
:1022800010B502210748FFF7BCFB40F6FF20FFF71F
:1022900073FC02210348FFF7B6FB40F6FF20FFF76F
:1022A0006BFC10BD001801404FF0C0410880704722
:1022B0000149088070470000000002602DE9FC4FD2
:1022C0000C461E464FEA004A9AFBF2FA0AF1010A4E
:1022D000CDF804A04FEA044A9AFBF6FA0AF1010A83
:1022E000CDF800A04FF00009202801DBBDE8FC8FED
:1022F00000FB04FABAF1000F00D1F7E700FB04FA83
:10230000BAF5806F00DBF1E702FB06FABAF1000FC5
:1023100000D1EBE702FB06FABAF5804F00DBE5E7F8
:10232000454BDDF834A0BAF1000F2BD100211FE09E
:10233000002517E0DDF82CA01AF801A04FF0800B63
:102340004BFA05FB0AEA0B0ABAF1000F02D04FF074
:10235000010A01E04FF0000A03F801AB05F1010AA0
:102360001FFA8AF5082DE5DB01F1010A1FFA8AF14F
:1023700004FB00FA4FEAEA7B0AEB5B7BB1EBEB0F65
:10238000D6DB2AE000211FE0002517E0DDF82CA0B5
:102390001AF801A04FF0800B4BFA05FB0AEA0B0A72
:1023A000BAF1000F02D04FF0010A01E04FF0000A2D
:1023B00003F801AB05F1010A1FFA8AF5082DE5DBE8
:1023C00001F1010A1FFA8AF104FB00FA4FEAEA7BE5
:1023D0000AEB5B7BB1EBEB0FD6DB174B174F4FF0E4
:1023E000000C1AE04FF0000A4FEA194B00FB0B3EBD
:1023F000D0460AE00EEB1A4B9BF800B007F808B085
:10240000DDF804B0DA4408F101089045F2D3DDF8B4
:1024100000B0D94417440CF1010CB445E2D3DFF805
:102420001CA0CDF830A0DDF830A00AF1010ACDF8EB
:1024300030A000BF5AE700003042002030020020E8
:10244000024A1080024A1180704700004C000020B0
:102450004E0000200149086070470000480000203D
:1024600001490880704700004C0000201CB5FFF7B0
:10247000ABFD3848FFF7EEFF00214FF47840FFF73F
:10248000DFFF354803883548028800210846FFF7FA
:102490005DFB002032A114231A46CDE900100A2169
:1024A0002820FFF773FB4FF6FF70FFF7D9FF0020DE
:1024B00030A112231A46CDE9001046210F20FFF764
:1024C00065FB00202FA112231A46CDE900106421DC
:1024D0000F20FFF75BFB00202DA112231A46CDE948
:1024E000001082210F20FFF751FB00202CA11223A6
:1024F0001A46CDE90010A0210F20FFF747FB00206E
:102500002AA112231A46CDE90010BE210F20FFF7A1
:102510003DFB002028A112231A46CDE90010DC2142
:102520000F20FFF733FB002029A112231A46CDE923
:102530000010FA210F20FFF729FB002029A1122308
:102540001A46CDE900104FF48C710F20FFF71EFBE7
:102550001CBD00002400002042000020400000209C
:10256000D6C7C4DCBFD5C6F8BCE0BFD8CFB5CDB3A5
:1025700000000000CEC2B6C8A3BA20202020A1E6E9
:1025800000000000CAAAB6C8A3BA20202020250057
:10259000C1C1B6C8A3BA20202020206C780000005A
:1025A000BFC9C8BCC6F8CCE5A3BA0000504D322E56
:1025B00035C5A8B6C8A3BA00B7E7C9C8D4CBD0D030
:1025C000D7B4CCACA3BA4F46462020202020000030
:1025D000B1A8BEAFC7E9BFF6A3BA202020202020B3
:1025E000000000004E6F726D616C202020202020C2
:1025F000202020202020202020202020200000003B
:1026000008B50121082000F0ABF82020ADF800004B
:1026100010208DF8030003208DF80200694615484C
:10262000FFF75BF90120ADF8000010208DF80300E2
:1026300003208DF8020069460E48FFF74EF902208C
:10264000ADF8000010208DF8030003208DF8020083
:1026500069460848FFF741F920210648FFF7D3F9FA
:1026600001210448FFF7CFF902210248FFF7CBF917
:1026700008BD0000000C014000BFFEE770470000ED
:1026800070B5002100230F22C47804B3154C2468D0
:1026900004F4E064C4F5E064210AC1F10403CA4013
:1026A000447804FA03F184781440214309010E4C64
:1026B0000678A155047804F01F050124AC40057884
:1026C0006D11AD0005F1E025C5F8004109E0047881
:1026D00004F01F050124AC40044D0678761145F83E
:1026E000264070BD0CED00E000E400E080E100E079
:1026F00002490143024A1160704700000000FA05D8
:102700000CED00E07047000001460020034A5068CD
:1027100020F4404008435060704700000010024021
:1027200029B1064A52690243044B5A6104E0034A44
:1027300052698243014B5A61704700000010024009
:1027400029B1064AD2690243044BDA6104E0034A24
:10275000D2698243014BDA617047000000100240E9
:1027600029B1064A92690243044B9A6104E0034A84
:1027700092698243014B9A61704700000010024049
:1027800030B500210022002400232D4D6D6805F096
:102790000C0121B1042905D0082923D105E0294DD8
:1027A000056022E0274D05601FE0254D6D6805F4AA
:1027B0007012234D6D6805F48034022505EB9242BA
:1027C0001CB9214D554305600BE01D4D6D6805F4A6
:1027D00000351DB11C4D5543056002E0194D5543B0
:1027E000056002E0174D056000BF00BF144D6D6825
:1027F00005F0F0010909154D6B5C0568DD40456089
:102800000F4D6D6805F4E061090A104D6B5C456879
:10281000DD4085600A4D6D6805F46051C90A0B4DB5
:102820006B5C4568DD40C560054D6D6805F4404151
:10283000890B074D6B5CC568B5FBF3F5056130BDD1
:102840000010024000127A0000093D005C000020E8
:102850006C00002070B50025002424E000BF80211A
:102860001348FFF7C5F80028F9D02820FEF7FEFA34
:1028700080210F48FFF7BCF801280DD100BF80214F
:102880000B48FFF7B5F80128F9D0C4F10701012082
:102890008840C0B2054304E0C4F10701012088402C
:1028A0008543601CC4B2082CD8DB284670BD0000EC
:1028B0000010014010B50446FEF7F4F980212448C9
:1028C000FFF79FF844F25060FEF7D0FA80212048CD
:1028D000FFF799F81E20FEF7C9FAFEF7D5F9802117
:1028E0001B48FFF785F870BB00BF80211848FFF731
:1028F0007FF80028F9D000BF80211548FFF778F84D
:102900000128F9D0FFF7A6FF2070FFF7A3FF607042
:10291000FFF7A0FFA070FFF79DFFE070FFF79AFFA1
:102920002071FEF7BFF980210948FFF76CF8207885
:1029300061780844A1780844E17808442179884204
:1029400002D1012010BD01E00020FBE70020F9E7E3
:102950000010014021B1028842F04002028004E0F0
:1029600002884FF6BF731A400280704770B5054663
:102970000C46164601211048FFF743F8032000F0EB
:102980007DF8C4F3074000F079F8C4F3072000F0A5
:1029900075F8E0B200F072F804E0FF2000F06EF885
:1029A00028706D1C301EA6F101018EB2F5D10121F7
:1029B0000148FFF728F870BD0010014000B587B04E
:1029C00001210803FFF7CCFE0121D420FFF7C8FE48
:1029D0000120ADF8040003208DF8060010208DF8CA
:1029E000070001A92248FEF778FF2020ADF8040077
:1029F00018208DF8070001A91E48FEF76EFF402041
:102A0000ADF8040001A91B48FEF767FF8020ADF870
:102A1000040001A91748FEF760FF01211448FEF7E2
:102A2000F2FF0020ADF808004FF48270ADF80A0004
:102A30000020ADF80C000220ADF80E000120ADF82A
:102A400010004002ADF812000820ADF8140000207C
:102A5000ADF816000720ADF8180002A9064800F0EE
:102A600057F801210448FFF775FF07B000BD0000CB
:102A700000100140000801400030014010B504463C
:102A80004FF48050194908600AE018490868411E4F
:102A9000164A116020B9002000F058F8C0B210BDED
:102AA0000221134800F026F80028EED021461048F5
:102AB00000F02CF84FF480500C4908600AE00B49F4
:102AC0000868411E094A116020B9012000F03EF853
:102AD000C0B2E4E70121064800F00CF80028EED06F
:102AE000034800F010F8C0B2D9E700005000002001
:102AF000003001400246002013890B400BB1012039
:102B000000E0002070470146888970478181704746
:102B100010B50022028802F441520B884C882343EE
:102B20008C882343CC8823430C8923434C8923433B
:102B30008C892343CC8923431A430280838B4FF231
:102B4000FF74234083830B8A038210BD10B50446B3
:102B5000214602A000F0F8FB002010BD3C3C2D46B1
:102B60004C4153482D4552524F522D3E3E2053501A
:102B70004920B5C8B4FDB3ACCAB1216572726F7299
:102B8000436F6465203D2025640A0000704710B53E
:102B900000F002F810BD00000CB50020019000907C
:102BA0003348006840F480303149086000BF304845
:102BB000006800F4003000900198401C01900098DB
:102BC00018B90198B0F5A06FF1D12948006800F458
:102BD000003010B10120009001E00020009000982A
:102BE000012843D12348006840F0100021490860C3
:102BF0000846006820F0030008600846006840F0BE
:102C0000020008601A484068194948600846406850
:102C100048600846406840F4806048600846406864
:102C200020F47C1048600846406840F4E810486092
:102C30000846006840F08070086000BF0C480068DB
:102C400000F000700028F9D00948406820F0030027
:102C5000074948600846406840F00200486000BFED
:102C60000348406800F00C000828F9D10CBD0000B2
:102C700000100240002002400448006820B10348D0
:102C80000068401E014908607047000020000020D5
:102C900030B51A4800681A4AB0FBF2F1B1F1807FF2
:102CA00001D301201DE021F07F40401E4FF0E022C3
:102CB000506150170F22002807DA13071D0E114B21
:102CC00000F00F04241F1D5503E013071C0E0E4BCC
:102CD0001C5400BF00204FF0E022906107201061DB
:102CE000002008B100BFFEE74FF0E020006920F0AF
:102CF00001004FF0E021086130BD000070000020AD
:102D000040420F0018ED00E000E400E010B5134869
:102D1000006840F001001149086008464068104909
:102D200008400E494860084600680E4908400B49B3
:102D300008600846006820F4802008600846406863
:102D400020F4FE0048604FF41F008860FFF71FFF6B
:102D50004FF000600449086010BD00000010024000
:102D60000000FFF8FFFFF6FE08ED00E010B50121BE
:102D7000064800F021F840B105480068401C0449AD
:102D800008600121014800F008F810BD000C004067
:102D900018000020CA4302827047CA43028270476B
:102DA00021B1028842F00102028004E002884FF65D
:102DB000FE731A400280704730B50246002000239F
:102DC0000024158A05EA0103958905EA010413B177
:102DD0000CB1012000E0002030BD1AB183890B4303
:102DE000838102E083898B438381704770B5002221
:102DF00000230024058C4EF6FF7635400584038CB5
:102E00008488828B48F6FF752A404FF6FF452A409A
:102E10000D884FF6FF7606EA05252A434DF6FF7525
:102E20002B400D8906EA05352B434D8806EA05350A
:102E30002B430B4DA84202D00A4DA84208D14BF6B5
:102E4000FF752C408D894FF6FF7606EA85152C43D9
:102E500084808283CD88A0F84050038470BD000038
:102E6000002C0140003401400A460021818B4FF2C2
:102E7000FF7319404FF6FF7303EA0223194381835E
:102E80007047A0F840107047002202881D4B9842FE
:102E90000ED01D4B98420BD0B0F1804F08D01B4B89
:102EA000984205D01A4B984202D01A4B984204D14E
:102EB0004FF68F731A404B881A43174B984207D02E
:102EC000164B984204D04FF6FF431A40CB881A4362
:102ED00002808B8883850B8803850A4B98420BD030
:102EE000094B984208D00E4B984205D00D4B9842A2
:102EF00002D00D4B984201D10B7A038601238382C5
:102F000070470000002C01400034014000040040E4
:102F100000080040000C0040001000400014004079
:102F200000400140004401400048014000B585B028
:102F3000012144F20400FFF713FC4FF40070ADF8D8
:102F4000100018208DF8130003208DF8120004A93A
:102F50001748FEF7C2FC4FF48060ADF81000042063
:102F60008DF8130004A91248FEF7B7FC4FF4E130C6
:102F700000900020ADF80400ADF80600ADF80800A0
:102F80000C20ADF80A000020ADF80C006946094895
:102F900000F0E0F800F060F8012240F22551054809
:102FA00000F0B2F80121034800F06BF805B000BD55
:102FB000000801400038014010B540F2255120487A
:102FC00000F078F8D8B11E4800F030F9C4B21D48BE
:102FD000B0F80004C0F30E0040F2FF3188420EDA70
:102FE0001849B1F80014C1F30E00411C154AB2F89B
:102FF000002461F30E021349A1F800240C5440F29E
:1030000024410F4800F056F8012817D10D48B0F8B8
:10301000000420F4004000F500400A49A1F8000433
:10302000074800F003F9C4B207A10648FDF7AEF85F
:1030300008B1012000E000200649087010BD000022
:103040000048004030460020434C4F5345440D0A91
:10305000000000005A00002008B54FF4E060FFF7C0
:1030600047FB25208DF8000000208DF8010002208C
:103070008DF8020001208DF803006846FFF700FB81
:1030800008BD21B1828942F40052828104E0828924
:103090004DF6FF731A408281704702460020B1F559
:1030A000007F00D100BF13880B400BB1012000E06E
:1030B0000020704770B50246002400230025002040
:1030C00040F66A16B14200D100BFC1F3421501F0CB
:1030D0001F03012606FA03F3012D02D1968933401E
:1030E00006E0022D02D1168A334001E0968A334071
:1030F0000C12012606FA04F41688344013B10CB100
:10310000012000E0002070BDF0B503460024002639
:103110000025002040F66A17B94200D100BF1846CA
:10312000C1F3421401F01F06012707FA06F5012C2E
:1031300001D10C3004E0022C01D1103000E0143039
:103140001AB107682F43076002E00768AF430760C2
:10315000F0BD00002DE9F04786B005460E4600247C
:10316000A24600BFA1460027B08900B100BF2F468C
:103170002C8A4CF6FF700440F08804432C82AC8902
:103180004EF6F3100440B088318908437189084332
:103190000443AC81AC8A4FF6FF400440B08904433D
:1031A000AC8201A8FFF7ECFA1F48874202D1DDF894
:1031B00010A001E0DDF80CA0A88900F4004040B1A7
:1031C0000AEBCA0000EB0A1031684900B0FBF1F8C5
:1031D00007E00AEBCA0000EB0A1031688900B0FB77
:1031E000F1F86420B8FBF0F004012009642101FB30
:1031F0001089A88900F4004040B1322000EBC900DA
:10320000B0FBF1F000F00700044308E0322000EBCF
:1032100009106421B0FBF1F000F00F0004432C8191
:1032200006B0BDE8F08700000038014001468888FC
:10323000C0F308007047C1F30802828070470FB4E2
:1032400070B586B006460CA8019073E00B98007824
:103250005C281CD10B98401C0B9000786E2809D07C
:1032600072280FD10D213046FFF7E5FF0B98401C67
:103270000B900BE00A213046FFF7DDFF0B98401C56
:103280000B9003E00B98401C0B9000BF4BE00B9899
:103290000078252840D10B98401C0B9000786428BA
:1032A00018D0732833D1019810C801900BE0217811
:1032B0003046FFF7C0FF00BF80213046FFF7EDFE2C
:1032C0000028F9D0641C20780028F0D10B98401C0D
:1032D0000B9020E0019820C801900A2202A92846FC
:1032E00000F0C6FC02AC0BE021783046FFF7A3FFEC
:1032F00000BF80213046FFF7D0FE0028F9D0641CC3
:1033000020780028F0D10B98401C0B9003E00B981C
:10331000401C0B9000BF06E00B9810F8011B0B90AF
:103320003046FFF788FF00BF80213046FFF7B5FE2B
:103330000028F9D00B980078002887D106B070BC1F
:103340005DF814FB00BFFEE70FB4054B10B503A9F1
:10335000044A029800F0DEF810BC5DF814FB00008F
:103360004D3C0008840000200FB4084B10B504A9A0
:1033700002AA039800F0CEF8044602A9002000F04B
:1033800060FC204610BC5DF814FB0000433C0008C4
:1033900002E008C8121F08C1002AFAD1704770471E
:1033A000002001E001C1121F002AFBD1704700007C
:1033B0002DE9FF5FDDE90220010DDDF838B00243A1
:1033C00018D044F61050A1F2FF3141430D140F986C
:1033D000012820D0A5EB0B00401C5FEA000A4FF04B
:1033E0000004474EDFF81C91A046504616D5CAF19E
:1033F000000728E00F98012443A2012808D00021EB
:1034000000980F9BC0E90021C0E90243BDE8FF9F7F
:103410006FEA0B01F4E7CBF10000DEE7074612E0AC
:10342000F80707D02246334640464946FCF7B8FF26
:10343000804689462246334610461946FCF7B0FFBF
:1034400004460E467F10002FEAD1DDE90201BAF1F1
:10345000000F42464B4602DAFCF7A2FF01E0FDF7FF
:1034600011F804460E460022284BFDF7E5F803D874
:103470004FF0FF30014607E00022254B2046314641
:10348000FCF7E7FEFDF718FA102409E0002C0ADB30
:103490000A220023FDF71AF9019B30321A55641EE7
:1034A00050EA0102F2D1641C019AC4F111031444E0
:1034B0000F9A012A03D0012208430DD10AE00843E4
:1034C00004D000204FF0110B0F9080E7A3EB0B0509
:1034D0006D1E0DE05B4504DD4FF0000205F10105B6
:1034E00004E003DA4FF00002A5F10105002AECD058
:1034F00000980F99C0E90231C0E9004586E7000055
:10350000000024400000F03F300000000000F043C5
:103510000000E03F2DE9FF4F95B09B4689460646E7
:1035200000250FE2252877D100242746F84A0121FB
:10353000059400E0044316F8013F203B01FA03F034
:103540001042F7D130782A2811D06FF02F0330784D
:10355000A0F13002092A16D8059A44F0020402EBC1
:10356000820203EB42021044761C0590EFE759F803
:10357000042B0592002A03DA504244F400540590CB
:1035800044F00204761C30782E2816D116F8010F6C
:1035900044F004042A280DD06FF02F023078A0F1F7
:1035A0003003092B09D807EB870302EB4303C71845
:1035B000761CF3E759F8047B761C30786C280FD022
:1035C00006DC4C2817D068280DD06A2814D104E0F6
:1035D000742810D07A280FD10DE044F400140AE0CA
:1035E00044F4801401E044F440147278824202D121
:1035F00004F58014761C761C307866280BD013DC1A
:10360000582877D009DC002875D04528F6D0462800
:10361000F4D047281AD19DE118E0632835D06428FA
:1036200079D0652812D195E1702873D008DC67281D
:10363000F1D069286FD06E280DD06F2806D1B5E083
:1036400073282CD0752875D0782874D05A461799CD
:1036500090476D1C75E1C4F30250022809D003287D
:103660000DD0D9F8001004280DD00D6009F104091F
:1036700067E1D9F80010EA17C1E90052F6E7D9F876
:1036800000100D80F2E70D70F0E719F8041B8DF8BB
:10369000001000208DF80100EA46012003E059F8EF
:1036A00004AB4FF0FF3061074FF0000102D40DE092
:1036B00008F101018846B9420FDA8045F8DB1AF8B3
:1036C00008100029F4D108E008F101018846814280
:1036D000FADB1AF808100029F6D105985B46A0EB32
:1036E000080721463846179A00F094FA284400EB60
:1036F000080507E04DE029E10DE01AF8010B5A46F4
:1037000017999047B8F10108F7D25B462146384631
:10371000179A13E142E00A220092C4F302524FF0DA
:10372000000A022A08D059F804CB032A4FEAEC71A8
:103730000AD00DE029E02AE009F1070121F0070293
:10374000F2E802C1914609E00FFA8CFC4FEAEC71F5
:10375000042A03D14FFA8CFC4FEAEC71002907DAF6
:103760000A460021DCF1000C61EB02012D2202E08F
:10377000220504D52B228DF80420012203E0E20764
:1037800001D02022F7E7904659E00A2102E01022FA
:103790000DE010214FF0000A00910BE010224FF0D5
:1037A000000A44F004040827009203E008224FF0C6
:1037B000000A0092C4F30252022A05D059F804CB41
:1037C0000021032A08D009E009F1070121F00702CE
:1037D000F2E802C1914605E01FFA8CFC042A01D1EF
:1037E0000CF0FF0C4FF00008220728D5702806D0F7
:1037F000009B83F0100353EA0A0305D00EE0402239
:103800008DF80420012208E05CEA010206D0302293
:103810008DF804208DF8050002229046009B83F06D
:10382000080353EA0A030AD15CEA010201D16207E4
:1038300005D530228DF804204FF001087F1E58284E
:1038400004D034A003900EA802900DE036A0F9E752
:1038500053466046009AFCF739FF84460398825C21
:103860000298401E029002705CEA0100F0D10298BA
:1038700006A9081A00F1200A600702D524F4803452
:1038800000E00127574502DDA7EB0A0000E0002019
:1038900000EB0A01009005984144401A0590E003AE
:1038A00006D45B462146179A059800F0B3F9054403
:1038B000002706E001A85A46C05D179990476D1C85
:1038C0007F1C4745F6DBE0030CD55B462146179A83
:1038D000059800F09FF9054404E030205A461799F6
:1038E00090476D1C0099481E00900029F5DC08E007
:1038F000029802995A460078491C029117999047FC
:103900006D1CBAF10001AAF1010AF1DC65E10000C9
:1039100009280100303132333435363738396162A5
:103920006364656600000000303132333435363769
:1039300038394142434445460000000000F058F940
:103940000544761C307800287FF4ECAD19B0284689
:10395000BDE8F08F620700D4062709F1070222F0C4
:10396000070CFCE80223E14603F000485FEA080C7C
:1039700002D00FF2702C0DE05FEA045C02D50FF26A
:10398000682C07E05FEAC47C02D00FF2602C01E0F3
:10399000AFF2700C4FF0FF3823F00043CDF850C069
:1039A00065280CD006DC452809D046281DD04728BC
:1039B0003DD13DE0662818D067287ED138E000214F
:1039C000112F01DB112000E0781CCDE9000106A9D0
:1039D0000EA8FFF7EDFCDDE90F010E9A039100211F
:1039E000009207F1010A04914DE04FF0004000976A
:1039F000CDE9011006A90EA8FFF7DAFCDDE90F02F8
:103A000003920E9B11990022DDF80CA00093049202
:103A100011B9791C00EB010AB7EB0A0004D4C0F11C
:103A2000FF3007F1010A0490AAEB0700019044E07F
:103A3000012F00DA01270021112F01DD112000E004
:103A40003846CDE9000106A90EA8FFF7B1FCDDE973
:103A50000F010E9A0391002104910092BA462107AA
:103A60000CD40399514500DA8A46BAF1010F05DDFD
:103A7000009AAAF10101515C302908D0B84202DA5B
:103A800010F1040F06DA0121CDE9011015E0AAF1C9
:103A90000101E9E7002805DC049901440491AAEB3F
:103AA000000102E0411C514500DD8A460499401A9C
:103AB000401C01904FF000400290200704D4019870
:103AC000504501DBCDF8048000208DF84F000298AE
:103AD0000DF14F07B0F1004F25D02B200E9002982A
:103AE0004FF0020800280CDA404202902D200E9080
:103AF00007E00A210298FCF7D3FD3031029007F865
:103B0000011DB8F10001A8F10108F2DC02980028BB
:103B1000EFD1791E0E980870307800F0200040F048
:103B2000450007F8020D12A8C01B00F10708149801
:103B3000007800B1012000EB0A01019801EBE0716F
:103B400005984144401A401E0590E00306D45B46A8
:103B50002146179A059800F05DF8054414980078FE
:103B600018B15A46179990476D1CE00324D55B465F
:103B70002146179A059800F04DF805441CE004987A
:103B8000002807DBDDE90301884203DD0098405C83
:103B9000179901E0179930205A469047049805F18B
:103BA0000105401C04900198401E019004D12E2074
:103BB0005A46179990476D1CBAF10001AAF1010A03
:103BC000DDDC05E017F8010B5A46179990476D1C8C
:103BD000B8F10001A8F10108F4DC5B462146179A10
:103BE0000598ABE62D0000002B000000200000002F
:103BF0002DE9F041044600251E461746880404D4EA
:103C000005E039462020B0476D1C641EF9D52846D2
:103C1000BDE8F0812DE9F041044600251E4690469E
:103C2000C80301D5302700E02027880404D505E02B
:103C300041463846B0476D1C641EF9D52846BDE89C
:103C4000F0810A68531C0B601070704770B5044611
:103C50000D46E1B20548FFF7EEFA00BF80210348A8
:103C6000FFF71BFA0028F9D0204670BD003801404C
:103C7000F0B503460D461646002729460A2E03D006
:103C8000002008702846F0BD33B9302001F8010B40
:103C9000002008702846F6E7002B03DA2D2001F8F3
:103CA000010B5B4242F210720DE093FBF2F404B997
:103CB00037B104F1300001F8010B04FB1233012786
:103CC0000A2092FBF0F2002AEFDC00200870284660
:103CD000D9E700008CB0FEF7DBFFFCF79DFFFDF796
:103CE000F3FCFEF7C3FBFEF78BFCFFF71FF9F8A010
:103CF000FFF72AFBFCF7AEFFFCF702FFFDF740FAE7
:103D0000FDF74CF9FDF7A5FDFEE3F648FEF7D2FD01
:103D1000012867D1F348C0780B90F24880780A9068
:103D20000246F1A1F2480B9BFFF71EFBED48C0785D
:103D30000390FCF71BFCEF4AEF4BCDE90401FCF7C5
:103D40002FFBCDE90801E74880780590FCF70EFCD1
:103D5000CDE90601DDE90823FCF77BFACDE90A018C
:103D6000FCF782FCE54908600020E14912231A466D
:103D7000CDE9001046213C20FDF708FFD9484078E6
:103D80000B90D84800780A900246D7A1D8480B9BE0
:103D9000FFF7EAFAD34840780390FCF7E7FBD54AEF
:103DA000D54BCDE90401FCF7FBFACDE90801CD487C
:103DB00000780590FCF7DAFBCDE90601DDE9082380
:103DC000FCF747FACDE90A01FCF74EFCCB49486005
:103DD0000020C74912231A46CDE9001064213C2077
:103DE000FDF7D4FE0A20FDF771FE0590FCF7B9FB44
:103DF0004FF08B410690FCF7EEF90790FCF7F0FBD3
:103E00004FF06632BE4BCDE90801FCF7C9FACDE9A7
:103E10000A01FCF729FCBB490860084600680590C8
:103E2000FCF7DEFB4FF06632B54BCDE90601FCF73F
:103E3000B4FAB54AB54BCDE90801FCF723FBCDE94F
:103E40000A01FCF711FCB2490860084600680990B5
:103E5000FCF7C6FB02460B46CDE90A01ADA1A4481A
:103E6000FFF782FA0020A24912231A46CDE900107A
:103E700082213C20FDF78AFEA54800680990FCF7E6
:103E8000AFFB0022A54BCDE90A01FCF7D5FB42D8D8
:103E9000A348007800283FD1A248006880F02000A5
:103EA000A0490860A048006880F480709E490860BE
:103EB0004FF47840FEF7D4FA00209CA112231A4652
:103EC000CDE900104FF48C710F20FDF75FFE4FF627
:103ED000FF70FEF7C5FA002099A112231A46CDE91A
:103EE0000010DC218720FDF751FE40F2E7314FF052
:103EF0008040FEF7C6FF08219648FDF782FD20218D
:103F00009448FDF780FD0320934908709349087099
:103F100001208349087046E081480078012842D199
:103F20008E48007803283ED17E48006880F020004B
:103F30007C4908607C48006880F480707A49086099
:103F40004FF47840FEF78CFA002078A112231A462D
:103F5000CDE900104FF48C710F20FDF717FE4FF6DE
:103F6000FF70FEF77DFA002075A112231A46CDE9F5
:103F70000010DC218720FDF709FE40F2E7314FF009
:103F80008040FEF77EFF08217248FDF73AFD2021B0
:103F90007048FDF738FD03206F4908706F490870BD
:103FA00001205F4908700A20FDF7A6FD0590FCF787
:103FB000D8FA4FF08B410690FCF70DF90790FCF70B
:103FC0000FFB0022664BCDE90801FCF7E9F9CDE9CA
:103FD0000A01FCF749FB4B494860084640680790D6
:103FE000FCF7FEFA5F4A604BCDE90801FCF74AFA9C
:103FF000CDE90A01FCF738FB4549486008464068AE
:104000000990FCF7EDFA02460B46CDE90A0157A1EB
:104010003748FFF7A9F90020354912231A46CDE9A0
:104020000010A0216020FDF7B1FD394840680990DB
:10403000FCF7D6FA0022504BCDE90A01FCF7FCFA56
:1040400043D837480078002840D13648006880F0CF
:104050002000344908603448006880F48070324998
:1040600008604FF47840FEF7FBF9002043A11223CB
:104070001A46CDE900104FF48C710F20FDF786FD34
:104080004FF6FF70FEF7ECF900202DA112231A461F
:10409000CDE90010DC218720FDF778FD40F2E73103
:1040A0004FF08040FEF7EDFE08212A48FDF7A9FCFD
:1040B00020212848FDF7A7FC032027490870042089
:1040C00026490870012016490870ABE060E0000046
:1040D000B4AEBFDAB3F5CABCBBAFB3C9B9A6A3A12E
:1040E0000A0000000000002025642E256400000066
:1040F000A00000209A9999999999B93F0800002049
:1041000066660A40880000201E85EB51B81E953F68
:104110009400002025352E316600000000406040EC
:10412000150000200C0C01400C0801404C69676828
:104130007420416C61726D2120202020000000005D
:104140005448524545202020202020202020202097
:104150002020000000100140140000201600002064
:1041600000001440FCA9F1D24D62503F25342E6668
:104170002070706D000000000070A740536D6F6BE1
:104180006520416C61726D2120202020000000001C
:10419000FE480078012845D1FD480078042841D127
:1041A000FC48006880F02000FA490860FA4800687E
:1041B00080F48070F84908604FF47840FEF750F9B9
:1041C0000020AFF2480112231A46CDE900104FF447
:1041D0008C710F20FDF7DAFC4FF6FF70FEF740F907
:1041E0000020AFF2A40112231A46CDE90010DC2111
:1041F0008720FDF7CBFC40F2E7314FF08040FEF71F
:1042000040FE0821E548FDF7FCFB2021E348FDF7CF
:10421000FAFB0320E24908700420DD490870012000
:10422000DA4908701420FDF73DFC0590FCF799F978
:104230004FF08B410690FBF7CEFF0790FCF7D0F9CB
:104240000022D84BCDE90801FCF7AAF8CDE90A0114
:10425000FCF70AFAD4498860084680680790FCF7A2
:10426000BFF9D24AD24BCDE90801FCF70BF9CDE9F1
:104270000A01FCF7F9F9CF4988600846806809907F
:10428000FCF7AEF902460B46CDE90A01AFF2241164
:10429000C948FFF769F80020C74912231A46CDE93B
:1042A0000010BE216920FDF771FCC24880680990AA
:1042B000FCF796F90022C14BCDE90A01FCF7BCF9E5
:1042C00044D8B2480078002841D1B248006880F054
:1042D0002000B0490860B048006880F48070AE49A2
:1042E00008604FF47840FEF7BBF80020B4A1122319
:1042F0001A46CDE900104FF48C710F20FDF746FCF3
:104300004FF6FF70FEF7ACF80020AFF2CC1112238D
:104310001A46CDE90010DC218720FDF737FC40F27A
:10432000E7314FF08040FEF7ACFD08219B48FDF7D8
:1043300068FB20219948FDF766FB03209849087027
:1043400005209349087001209049087048E08F4883
:104350000078012844D18E480078052840D18D4846
:10436000006880F020008B4908608B48006880F46A
:104370008070894908604FF47840FEF771F800209A
:104380008FA112231A46CDE900104FF48C710F2033
:10439000FDF7FCFB4FF6FF70FEF762F80020AFF26E
:1043A000602112231A46CDE90010DC218720FDF799
:1043B000EDFB40F2E7314FF08040FEF762FD08214F
:1043C0007648FDF71EFB20217448FDF71CFB0320F7
:1043D0007349087005206E49087001206B49087008
:1043E000744800680990FCF7FBF80022794BCDE98E
:1043F0000A01FCF709F959D26E4840680990FCF7A8
:10440000EFF80022744BCDE90A01FCF7FDF84DD21C
:10441000684880680990FCF7E3F80022674BCDE913
:104420000A01FCF7F1F841D25848007801283DD143
:10443000202158480C38FDF7E6FA012155480C3880
:10444000FDF7E1FA022153480C38FDF7DCFA4FF48E
:10445000807151480C38FDF7D4FA00205FA1122377
:104460001A46CDE900104FF48C710F20FDF78EFB3A
:1044700000205FA112231A46CDE90010DC2187201D
:10448000FDF784FB00214FF08040FEF7FAFC082185
:104490004248FDF7B8FA20214048FDF7B4FA002061
:1044A0003F4908703A490870384908705448016813
:1044B00054A0FEF749FF5248006840F28331884219
:1044C00059D33C4880680590FCF75DF80B9039485B
:1044D00000680590FCF757F80A9036484068059048
:1044E000FCF751F80990484840680590FCF74BF8F4
:1044F0000890454800680590FCF772F8CDE9060180
:1045000023480278264800E0B8E00378DDE90A0194
:10451000CDE90432CDE90201DDE90801CDE9000170
:104520003A493B48DDE90623FEF71EFF3848FCF711
:10453000F5FE3849086008460068FBF745FE354936
:10454000096808440B3833490860012208460168AD
:104550003148FBF72DFE00202F49487008460078AF
:1045600030382E490860084601682DA0FEF7ECFEA1
:104570000020234908600548007800287ED127489C
:10458000006800287BD1202102484FE01500002060
:10459000160000200C0C01400C08014000100140E6
:1045A0001400002000001440880000204F1BE8B4D5
:1045B000814E5B3F94000020A000002000689040E6
:1045C000504D322E3520416C61726D21202020200B
:1045D00000000000004060400070A7404E6F726D08
:1045E000616C2020202020202020202000000000BE
:1045F0004F46462020202020202020202020200060
:104600001800002025640A0008000020E08300084C
:10461000040100201C000020CC010020100000201C
:1046200047454152203D2025640A00000C38FDF723
:10463000EAF901217E48FDF7E6F902217C48FDF701
:10464000E2F94FF480717B48FDF7DBF90020AFF20F
:10465000740112231A46CDE900104FF48C710F201B
:10466000FDF794FA0020AFF2780112231A46CDE943
:104670000010DC218720FDF789FA01E0D6E013E085
:1046800000214FF08040FEF7FCFB08216A48FDF74F
:10469000BAF920216848FDF7B6F90020674908708B
:1046A00067490870674908706748006801283CD16D
:1046B00020215F48FDF7A7F901215D48FDF7A3F927
:1046C00002215B48FDF79FF94FF480715948FDF7CF
:1046D00098F90020AFF2FC0112231A46CDE9001030
:1046E0004FF48C710F20FDF751FA002057A11223CF
:1046F0001A46CDE90010DC218720FDF747FA40F289
:1047000057214FF08040FEF7BCFB08214A48FDF7D7
:1047100078F920214848FDF776F9012047490870CB
:104720000020474908704749087047480068022838
:104730003BD120213E48FDF766F901213C48FDF7B9
:1047400062F902213A48FDF75EF94FF48071394869
:10475000FDF757F90020AFF27C1112231A46CDE97C
:1047600000104FF48C710F20FDF710FA00203BA1D0
:1047700012231A46CDE90010DC218720FDF706FA46
:1047800040F2ED218807FEF77CFB08212A48FDF75F
:1047900038F920212848FDF736F90220274908700A
:1047A0000020274908702749087027480068032817
:1047B0003CD120211E48FDF726F901211C48FDF7B8
:1047C00022F902211A48FDF71EF94FF480711948A9
:1047D000FDF717F90020AFF2FC1112231A46CDE9BC
:1047E00000104FF48C710F20FDF7D0F900201FA1AD
:1047F00012231A46CDE90010DC218720FDF7C6F907
:1048000040F2E7314FF08040FEF73BFB08210A48B9
:10481000FDF7F7F820210848FDF7F5F803200749D0
:10482000087000200649087006490870FFF76DBA45
:10483000000C01400008014000100140140000205D
:104840001600002015000020100000204F4E4520CB
:1048500020202020202020202020200054574F20DE
:1048600020202020202020202020200054485245B5
:104870004520202020202020202020202000000073
:104880000000000000000000000000000000000028
:104890000000001818181818180800081800000060
:1048A0000000003424242400000000000000000068
:1048B0000000000016247F2424247E24240000000D
:1048C000000000083E6848681C1612127C10100098
:1048D00000000061D296740810162949C600000035
:1048E000000000003C646438724ACE467F0000003D
:1048F0000000001818181800000000000000000058
:1049000000000004081810303030301010180C046B
:10491000000000201008080C0404040C08181020E3
:10492000000000080A341C6A0800000000000000B3
:104930000000000000001818187F18181800000068
:1049400000000000000000000000001818083000FF
:104950000000000000000000003C0000000000001B
:104960000000000000000000000000181800000017
:104970000000000206040C0808101020204000006F
:10498000000000003C6642475B7342663C0000004A
:104990000000000018784808080808087E00000099
:1049A000000000003C460606040810207E000000BF
:1049B000000000007C0606043C0202067C000000A9
:1049C000000000000C1C14246444FF0404000000D8
:1049D000000000007E6060607E0202067C00000035
:1049E000000000001E306048764242623C00000039
:1049F000000000007E0206040C08181030000000C1
:104A0000000000003C6242361C6642423C0000004E
:104A1000000000003C664242661A02047800000072
:104A20000000000000001818000000181800000026
:104A300000000000000018180000001818083000DE
:104A400000000000000004183060100C0600000098
:104A500000000000000000007E007E00000000005A
:104A6000000000000000301804060C1020000000B8
:104A7000000000301C060606181000101000000090
:104A80000000001C224141DDB5A5A5AF94C0403C0B
:104A900000000000181C342426627E43C100000080
:104AA000000000007C4642467C4242427C000000FE
:104AB000000000001E204040404040603E000000DA
:104AC000000000007C464243434342467800000019
:104AD000000000007E6060607E6060607E0000001C
:104AE000000000007E6060607E606060600000002A
:104AF000000000001E604040CE4242623E000000C6
:104B000000000000424242427E4242424200000017
:104B1000000000007E181818181818187E000000F1
:104B2000000000007C040404040404447800000035
:104B3000000000004244485070584C4442000000BD
:104B40000000000020202020202020203E00000027
:104B5000000000006266675F5B5BC1C1C1000000CE
:104B600000000000626272525A4A4E46460000003F
:104B7000000000003C6243C3C3C343623C0000002A
:104B8000000000007C464242467840404000000061
:104B9000000000003C6243C3C3C343623C180F00E3
:104BA000000000007C6662667C6C64666200000047
:104BB000000000003E6040601C0602027C00000015
:104BC000000000007F1818181818181818000000A6
:104BD0000000000042424242424242623C00000069
:104BE00000000000C14342622624341C180000006B
:104BF00000000000C1C141495B5B766666000000B1
:104C00000000000043663418181C2466C30000002E
:104C100000000000C14266341C181818180000007B
:104C2000000000007E02040C181020607E000000CE
:104C30000000001C10101010101010101010101C8C
:104C4000000000402020101008080C04060200009C
:104C50000000003C0C0C0C0C0C0C0C0C0C0C0C3C58
:104C600000000000181C246200000000000000008A
:104C7000000000000000000000000000000000FF35
:104C800000000020100000000000000000000000F4
:104C90000000000000003C06023E42467A00000090
:104CA0000000004040405C62424242427C00000002
:104CB0000000000000001E20604060203E00000058
:104CC0000000000202023E62424242663A000000D8
:104CD0000000000000003C62427E40603E00000098
:104CE0000000000F1810107E1010101010000000AF
:104CF0000000000000003F66426658403E43423CD0
:104D00000000004040405C624242424242000000DB
:104D10000000001818007808080808087E00000045
:104D2000000000040C007C040404040404040C7857
:104D3000000000606060626C78706864620000006F
:104D40000000007808080808080808087E0000002D
:104D5000000000000000764B4B4B4B4B4B0000001B
:104D60000000000000005C6242424242420000003B
:104D70000000000000003C62424342623C00000030
:104D80000000000000005C62424242427C40404021
:104D90000000000000003E62424242663A02020207
:104DA0000000000000006E72636060606000000040
:104DB0000000000000003E20203C06027C000000B5
:104DC000000000001010FE10101010101E00000057
:104DD0000000000000004242424242663A000000E9
:104DE0000000000000004342662434181800000050
:104DF000000000000000C1C15B5A5E666600000052
:104E000000000000000062261C181C266200000042
:104E100000000000000043426624341C181830E0F3
:104E20000000000000007E060C1810207E0000002C
:104E30000000000E18101010307010101010180E16
:104E400000000808080808080808080808080808F2
:104E500000000030180808080C0E08080808183070
:104E60000000000000000000714B06000000000080
:104E70000000000000000000000000000000000032
:104E80000000000000000000000000000000000022
:104E90000000000000000000000000000000000012
:104EA000000000000000000000000380018001807D
:104EB000018001800180018001800180018000006B
:104EC000000003C003C0000000000000000000005C
:104ED000000000000000000000000E700E700E7058
:104EE0000C30000000000000000000000000000086
:104EF00000000000000000000000000000000000B2
:104F00000000000000000000000000000618063845
:104F100006307FFE0C300C300C300C307FFE0C6005
:104F20001C60186018600000000000000000000015
:104F3000000000000000000000C000C00FF83CC8E6
:104F400031C031803D801F8003F001F8031C030C49
:104F5000031C3FF83FE007000600000000000000CF
:104F600000000000000000001C007E0E630C6318AF
:104F700063307E6000C001800300077C0EE61CC623
:104F800018C630C6607C0000000000000000000071
:104F9000000000000000000000000FE01CF038706E
:104FA00038701C601FC00F003F8C71CC60EC607CBF
:104FB00070383CFC1FCE0000000000000000000024
:104FC0000000000000000000000003C0018001801C
:104FD0000180000000000000000000000000000050
:104FE00000000000000000000000000000000000C1
:104FF0000000000000000000003000E001C001805F
:1050000003000700060006000E000E000E000E0052
:10501000060007000300038001C000E0003000002C
:1050200000000000000000000C000600038001806A
:1050300001C000E00060006000700070007000605F
:10504000006000E000C00180038006000C0000004A
:1050500000000000000000000000018011881DB861
:1050600003C007E03DBC0188018000000000000093
:105070000000000000000000000000000000000030
:105080000000000000000000000000000000000020
:10509000018001800180018001807FFE018001800C
:1050A00001800180000000000000000000000000FE
:1050B00000000000000000000000000000000000F0
:1050C00000000000000000000000000000000000E0
:1050D00003C003C001C001C003801F000000000026
:1050E00000000000000000000000000000000000C0
:1050F000000000000000000000000FF000000000B1
:10510000000000000000000000000000000000009F
:10511000000000000000000000000000000000008F
:10512000000000000000000000000000000000007F
:1051300003C003C003C00000000000000000000026
:1051400000000000000000000000001800380030DF
:10515000006000E000C001C0018003000300060001
:105160000E000C001C0018003000000000000000C1
:105170000000000000000000000001800FF01C385B
:10518000381C301C707E70EE738E7E0E7C0C300CE2
:10519000381C1E780FE00000000000000000000036
:1051A00000000000000000000000000007C01FC059
:1051B00039C001C001C001C001C001C001C001C0AF
:1051C00001C03FFC3FFC00000000000000000000A8
:1051D0000000000000000000000003801FF01838ED
:1051E0000038001800380038007001E00380070024
:1051F0001C003FFC3FFC000000000000000000001D
:105200000000000000000000000007801FF00038D0
:1052100000380038003007E007F00038001C001CA0
:10522000001820F83FE0000000000000000000002F
:1052300000000000000000000000000000F001B0CD
:10524000033007300E301C30383070307FFE7FFE68
:1052500000300030003000000000000000000000BE
:105260000000000000000000000000001FF818000F
:105270001800180018001FE000F8001C001C001C9B
:10528000003800F01FC00000000000000000000017
:1052900000000000000000000000000003F80F0004
:1052A0001C001800300037F83C3C300C300C380C37
:1052B000381C1E380FF00000000000000000000045
:1052C0000000000000000000000000003FFC001C87
:1052D000001800380070006000E001C00180038009
:1052E000070006000E0000000000000000000000A3
:1052F0000000000000000000000003C01FF8381C80
:10530000381C381C1C380FF007F01C78381C300C87
:10531000381C3C380FF000000000000000000000C6
:105320000000000000000000000003801FF038387B
:10533000301C701C700C380C1FFC0FCC001C0018AB
:1053400000701FE01F80000000000000000000004F
:10535000000000000000000000000000000000004D
:10536000000003C003C00180000000000000000036
:1053700003C003C003C000000000000000000000E4
:10538000000000000000000000000000000000001D
:10539000000003C003C00180000000000000000006
:1053A00003C003C001C001C003800F000000000063
:1053B00000000000000000000000000000000000ED
:1053C000003800F001C007001E0038000E00078002
:1053D00001C000700030000000000000000000006C
:1053E00000000000000000000000000000000000BD
:1053F0000000000000003FFC000000003FFC3FFCFC
:10540000000000000000000000000000000000009C
:10541000000000000000000000000000000000008C
:105420001C000F00038001E00078001C007001E008
:1054300003800E000C0000000000000000000000CF
:10544000000000000000000000000FC000F0003865
:1054500000380038003803F0038003000300000028
:10546000000007800780000000000000000000002E
:10547000000000000000000000E007F80C0C180617
:105480003006700363F36633C673CC63CC62CC66BC
:10549000CCE6C7FCE0006000700038101FF0000090
:1054A00000000000000000000000000003C007E052
:1054B00006E00E700E700C301C3818183FFC3FFCD4
:1054C000700E600EE0070000000000000000000009
:1054D0000000000000000000000000003FF038382D
:1054E000381C381C38383FF03FF8381C380C380C62
:1054F000381C3FF83FE00000000000000000000002
:105500000000000000000000000000E007FC1E0496
:105510003800380030007000700070003000380033
:105520003C001F9C07FC0000000000000000000081
:105530000000000000000000000000003FF0307894
:10554000301C300C300E300E300E300E300E301C51
:1055500030383FF03FC000000000000000000000B5
:105560000000000000000000000000001FF818000C
:105570001800180018001FF81FF81800180018006D
:1055800018001FF81FF800000000000000000000D5
:105590000000000000000000000000001FF81800DC
:1055A0001800180018001FF81FF81800180018003D
:1055B00018001800180000000000000000000000A3
:1055C0000000000000000000000000F007FC1E04C6
:1055D000380030007000700070FC700C700C300CE3
:1055E000380C1F1C07FC0000000000000000000039
:1055F000000000000000000000000000300C300C33
:10560000300C300C300C3FFC3FFC300C300C300CBC
:10561000300C300C300C00000000000000000000D6
:105620000000000000000000000000003FFC0180BE
:105630000180018001800180018001800180018062
:1056400001803FFC3FFC0000000000000000000063
:105650000000000000000000000000001FF000300B
:1056600000300030003000300030003000300030BA
:1056700000701DE01FC000000000000000000000DE
:10568000000000000000000000000000381C38701E
:1056900038E039C03B803F003F003B8039C038E0F4
:1056A00038703838381C000000000000000000008E
:1056B0000000000000000000000000001C001C00B2
:1056C0001C001C001C001C001C001C001C001C00FA
:1056D0001C001FFC1FFC0000000000000000000078
:1056E000000000000000000000000000381C7C3CAE
:1056F0006C3E6E6E666E66CE63C6638661866006BD
:105700006006600660060000000000000000000067
:105710000000000000000000000000003C0C3C0CF9
:105720003E0C360C330C338C318C31CC30EC306C7D
:10573000307C303C301C0000000000000000000005
:105740000000000000000000000001C00FF81C3C39
:10575000381C700E700E60066006700E700E700CB5
:10576000381C1E780FE00000000000000000000060
:105770000000000000000000000000003FF0383C86
:10578000381C380C380C381C38783FE038003800AA
:105790003800380038000000000000000000000061
:1057A0000000000000000000000001C00FF81C3CD9
:1057B000381C700E700E60066006700E700E700C55
:1057C000381C1E780FE0018001C000FF003C000083
:1057D0000000000000000000000000003FF038382A
:1057E00038183818383838F03FC038E03870383852
:1057F0003838381C380E000000000000000000009F
:105800000000000000000000000001E00FF8380078
:10581000380038003C001F8003F00078001C001C9A
:10582000001C38783FE0000000000000000000008D
:105830000000000000000000000000007FFE01806A
:105840000180018001800180018001800180018050
:1058500001800180018000000000000000000000C5
:10586000000000000000000000000000300C300CC0
:10587000300C300C300C300C300C300C300C300C48
:10588000381C1C380FF00000000000000000000071
:10589000000000000000000000000000E006700EA4
:1058A000700E381C381C1C181C380C300E7006602A
:1058B00007E003C003C0000000000000000000007B
:1058C000000000000000000000000000600660060C
:1058D000600660066186638673C673CE766C366C2E
:1058E0003C3C3C3C381C0000000000000000000074
:1058F000000000000000000000000000301C38180C
:105900001C380E7007E003C003C007E00E701C389F
:105910001838381C700E0000000000000000000065
:10592000000000000000000000000000700E700C7D
:10593000381C1C380E70066007E003C0018001802F
:1059400001800180018000000000000000000000D4
:105950000000000000000000000000003FFC001CF0
:105960000038007000E001C0038007000E000C004A
:1059700018003FFC3FFC0000000000000000000099
:10598000000000000000000007F007F0060006001D
:1059900006000600060006000600060006000600D7
:1059A00006000600060006000600060007F00000DC
:1059B0000000000000000000000018001C000C00A7
:1059C0000600070003000380018001C000C00060E2
:1059D0000070003000380018000C000000000000CB
:1059E00000000000000000000FE00FE00060006019
:1059F00000600060006000600060006000600060A7
:105A00000060006000600060006000600FE0000067
:105A100000000000000000000000000003C006C0FD
:105A200006600C301818301C000000000000000058
:105A30000000000000000000000000000000000066
:105A40000000000000000000000000000000000056
:105A50000000000000000000000000000000000046
:105A6000000000000000000000000000FFFF000038
:105A7000000000000000000000001E000380000085
:105A80000000000000000000000000000000000016
:105A90000000000000000000000000000000000006
:105AA00000000000000000000000000000000000F6
:105AB00000001FF01038001C001C0FFC1C1C381CC0
:105AC000381C3CFC1FDC000000000000000000004F
:105AD000000000000000000000003800380038001E
